:100000000C9472000C9493000C9493000C94930045
:100010000C9493000C9493000C9493000C94930014
:100020000C9493000C9493000C9493000C94930004
:100030000C9493000C9493000C9493000C949300F4
:100040000C9493000C9493000C9493000C949300E4
:100050000C94B3010C9493000C9493000C949300B3
:100060000C9493000C9493000C9493000C949300C4
:100070000C9493000C9493000C9493000C949300B4
:100080000C9493000C9493000C9493000C949300A4
:100090000C9493000C9493000C9493000C94930094
:1000A0000C9493000C9493000C9493000C94930084
:1000B0000C9493000C9493000C9493000C94930074
:1000C0000C9493000C9493000C9493000C94930064
:1000D0000C9493000C9493000C9493000C94930054
:1000E0000C94930011241FBECFEFD1E2DEBFCDBF31
:1000F00000E00CBF12E0A0E0B2E0E0E7F4E000E0D6
:100100000BBF02C007900D92A431B107D9F722E0CE
:10011000A4E1B2E001C01D92A631B207E1F70E944E
:10012000C7010C9436020C94000039980895399A4E
:100130004198089538980895389A4098089524E091
:10014000880F991F2A95E1F79195819591099093D0
:10015000850080938400109215021092140286B3D9
:1001600097B3816097BB86BB80916F0090917000C0
:1001700081609093700080936F00789480918100EB
:1001800090918200816090938200809381008091A1
:10019000140290911502892BD1F3109282001092D3
:1001A000810080916F00909170008E7F909370001D
:1001B00080936F0008950F931F93CF93DF93C7E051
:1001C000D0E0082F10E00E94970085E090E00E94A8
:1001D0009F00C8010C2E02C0959587950A94E2F7FE
:1001E00080FF2FC00E949A0081E090E00E949F0053
:1001F0000E949500319BFECF81E090E00E949F001D
:100200000E9497002197F8F60E949500319BFECF3F
:1002100085E090E00E949F000E949A0085E090E0B7
:100220000E949F00C6B185E090E00E949F000E945E
:1002300097008C2F80958170DF91CF911F910F9146
:1002400008950E949C00D0CF0E94950085E090E028
:100250000E949F000E949A0085E090E00C949F000D
:100260000E94950085E090E00E949F000E949A0005
:1002700085E090E00E949F000E949C0085E090E055
:100280000E949F000E94970085E090E00C949F00E0
:10029000CF93C82F0E9430018EE490E00E94DB00D3
:1002A0008C2F90E00E94DB00CF910C9424010F93DF
:1002B0001F93CF93DF9390E1899FE0011124686041
:1002C000C62B0C2F10E0C8010E94480181E090E08D
:1002D0000E949F00C4608C2F90E00E94480181E042
:1002E00090E00E949F00C8010E94480181E090E0D8
:1002F000DF91CF911F910F910C949F00CF93DF93CB
:10030000C82FD62F82958F700E9457016D2F8C2F8A
:100310008F70DF91CF910C9457010F931F93CF9360
:100320008C01F801C1918F01C11104C0CF911F91BF
:100330000F91089561E08C2F82958F700E94570174
:1003400061E08C2F8F700E945701EBCFCF93DF932A
:10035000EC01219718F4DF91CF91089588EE93E096
:100360000E949F00F6CF1F920F920FB60F9211249A
:100370008F939F9381E090E09093150280931402F5
:100380009F918F910F900FBE0F901F901895109214
:1003900081001092800010928200109281001092D1
:1003A000700010926F0010921502109214020E94B9
:1003B00095000E949A0082E390E00E94A60160E00E
:1003C00083E00E94570185E090E00E94A60160E072
:1003D00083E00E94570185E090E00E94A60160E062
:1003E00083E00E94570181E090E00E94A60160E056
:1003F00082E00E94570160E088E20E947E0188E26C
:1004000090E00E949F0060E08CE00E947E0188E204
:1004100090E00E949F0060E081E00E947E0182E007
:1004200090E00E94A60160E086E00E947E0188E2E2
:1004300090E00E949F0060E080E80E947E0188E2D8
:1004400090E00E949F0080E092E00E948D0160E0B9
:1004500080EC0E947E0188E290E00E949F0088E08C
:1004600092E00E948D0190E080E00895F894FFCF23
:10047000493243204C43440041544D4547413235B5
:040480003630000012
:00000001FF
